:10000000800F002039190000A5550000F1180000EC
:10001000F1180000F1180000F1180000F1180000BC
:10002000000000000000000000000000ED150000CE
:10003000F11800000000000091150000F118000008
:100040007D1600007D1600007D1600007D16000064
:100050007D1600007D1600007D1600007D16000054
:100060007D1600007D1600007D1600007D16000044
:100070007D1600007D1600007D1600007D16000034
:100080007D1600007D1600007D1600007D16000024
:100090007D1600007D1600007D1600007D16000014
:1000A0007D1600007D1600007D1600007D16000004
:1000B0007D1600007D1600007D1600007D160000F4
:1000C0007D1600007D1600007D1600007D160000E4
:1000D0007D1600007D1600007D1600007D160000D4
:1000E0007D1600007D1600007D1600007D160000C4
:1000F0007D1600007D1600007D1600007D160000B4
:100100007D1600007D1600007D1600007D160000A3
:100110007D1600007D1600007D1600007D16000093
:100120007D1600007D1600007D1600007D16000083
:100130007D1600007D1600007D1600007D16000073
:100140007D1600007D1600007D1600007D16000063
:040150007D16000018
:1001540053B94AB9002908BF00281CBF4FF0FF312A
:100164004FF0FF3000F00CB8ADF1080C6DE904CE8F
:1001740000F008F8DDF804E0DDE9022304B070477C
:10018400704700BF2DE9F04F07468C460846099E8C
:1001940015463C461946002B40F0C5808242B2FA0F
:1001A40082F746D94FB1C7F1200E00FA07F3BD40DC
:1001B40024FA0EFEBC404EEA030C4FEA15481FFA1F
:1001C40085FE220CBCFBF8F908FB19C309FB0EFAE7
:1001D40042EA03439A4528D9EB1809F1FF3004D2C7
:1001E4009A4502D9A9F102002B44A3EB0A03A4B255
:1001F400B3FBF8F208FB123302FB0EFE44EA03449D
:10020400A64514D92C1902F1FF3303D2A64501D90E
:10021400931E2C44A4EB0E0443EA00401EB1FC40A0
:10022400002334607360BDE8F08F4846DDE7134671
:10023400F0E702B9FFDE87BB831A01214FEA154EAE
:10024400AAB2200CB3FBFEFC0EFB1C330CFB02F821
:1002540040EA0343984562D9EB180CF1FF3004D20D
:10026400984502D9ACF102002B44A3EB0803A4B2D5
:10027400B3FBFEFC0EFB1C330CFB02F244EA03440A
:10028400A2424ED92C190CF1FF3304D2A24202D956
:10029400ACF102032C44A41ABEE7C7F1200CBD4004
:1002A40000FA07F320FA0CF84FEA154E24FA0CFC76
:1002B400BC404CEA0302ABB2B8FBFEFC110C0EFBD3
:1002C4001C800CFB03F941EA0040814523D928181E
:1002D4000CF1FF3104D2814502D9ACF1020128446A
:1002E400A0EB090092B2B0FBFEFC0EFB1C000CFB61
:1002F40003F842EA004398450FD9EB180CF1FF329A
:1003040004D2984502D9ACF102022B44A3EB0803B2
:1003140042EA014192E76146E2E76246F6E7604657
:10032400A3E76346B7E7834205D90EB1C6E9007077
:100334000021084677E7B3FA83F181B9834201D3F8
:10034400BA420AD8BC1A60EB030301209C46002E73
:1003540067D0C6E9004C002165E70846F7E7C1F11C
:10036400200C8B4002FA01F522FA0CF420FA0CFB63
:1003740027FA0CF28F401C4300FA01F34FEA1449A8
:1003840013431FFA84FE1A0CBBFBF9F809FB18BBD4
:1003940008FB0EFA42EA0B4292453ED9A21808F134
:1003A400FF3004D2924502D9A8F102002244A2EB04
:1003B4000A029BB2B2FBF9F809FB182208FB0EFEF5
:1003C40043EA024296452AD9A21808F1FF3304D21F
:1003D400964502D9A8F10203224443EA0040A2EB65
:1003E4000E02A0FB05939A42CE46984602D306D14C
:1003F4004F4504D20138B9EB050E63EB040886B10E
:10040400B7EB0E0362EB080707FA0CFCCB40CF40B6
:100414004CEA0303C6E900379DE74046C7E7434675
:10042400DBE73146FFE6000008B5104805F00FFF92
:1004340000B908BD0D4881680269136843F0805310
:1004440013600B680A4A1C219847002805DAF0E774
:1004540040F6CD40002104F00DFB044883685B693D
:100464004FF0805198470028F2DAE2E76C67000009
:100474000100060008B50B6801330B60014B1B68D3
:10048400984708BD00000020014B1860704700BF6A
:100494000000002000B583B002460B460021019104
:1004A40001A9034800F03CFA03B05DF804FB00BF67
:1004B400790400002DE9F04383B00446084615464C
:1004C400238B13F0080F05D103F0070600230093D4
:1004D400019369E0012909D043F02003238385F3C4
:1004E4001188BFF36F8F03B0BDE8F08343F01003AE
:1004F4002383F4E7204604F06AFE57E0D4F814900E
:100504004A466946204604F07BFE00275AE02369E8
:100514001F680621204604F033FE4FF0000951E025
:1005240023695F680421204604F02AFE4FF0000985
:1005340048E023699F680521204604F021FE4FF01E
:1005440000093FE0002246E0002244E043F00803B3
:10055400238385F31188BFF36F8F002944D1009B57
:100564002BB14B4642466946204604F0C0FE17B103
:1005740025492046B8474FF02003EFF3118583F354
:100584001288BFF36F8F238B23F008032383238BFD
:1005940013F0100F2ED023F0100323830120268B99
:1005A40006F0070600289AD00228A3D0002896D087
:1005B4000128A3D00328AAD00428B1D00528B8D094
:1005C4000027B946238B03F00708B045BAD0A268C8
:1005D400002AB9D001221146002AB7D1009A002A74
:1005E400B4D1002FB2D1D2E74A464146204604F0A6
:1005F400CFFDB4E713F0200F04D023F020032383AE
:100604000220CCE70020CAE72153000070B582B075
:10061400044600230360436083604B78252B02D09B
:100624004E1C01251FE0881CE37045E1237843F04C
:1006340004032370B5B1013614E0237843F00803B2
:100644002370F7E7237843F010032370F2E723784D
:1006540043F020032370EDE7237843F04003237035
:10066400E8E7002545B33378203B102BF9D801A2E5
:1006740052F823F0490600006706000067060000F0
:1006840053060000670600006706000067060000C6
:1006940067060000670600006706000067060000A2
:1006A4003F060000670600003106000067060000F0
:1006B400670600005D060000237803F04403442B22
:1006C4005FD00196237843F08003237033782A2B7C
:1006D4005CD001A804F0B3FE019B9E420FD02378A6
:1006E40043F0800323706060DBB2C3F3400300284F
:1006F40054DB00221343227863F341022270019BEE
:1007040001931B782E2B14BF00230123627863F31B
:1007140041026270002B43D0019B5A1C01925B780A
:100724002A2B3FD001A804F08AFEA0602378C3F3EB
:10073400400300283EDB00221343227863F3410286
:100744002270019803784C3B2E2B00F29D80DFE849
:1007540003F0909B9B9B9B9B9B9B9B9B9B9B9B9B33
:100764009B9B9B9B9B9B9B9B9B9B9B9B9B9B339B3D
:10077400579B459B9B9B9B9B9B9B899B9B9B9B9B71
:10078400820023786FF3861323709AE7637843F02B
:1007940001036370334601330193B1E70122A9E7F2
:1007A4000198CFE7637843F0040363701046013087
:1007B4000190C7E70122BFE7421C4378682B06D0AB
:1007C4006378022161F3C603637010461EE0637808
:1007D400012262F3C6036370023017E0421C4378BF
:1007E4006C2B06D06378032161F3C6036370104653
:1007F4000CE06378042262F3C6036370023005E000
:100804006378052262F3C6036370013010F8013B7C
:10081400E370A3F14102372A7DD8DFE802F05E7C61
:100824007C7C5E5E5E7C7C7C7C7C7C7C7C7C7C7C5E
:100834007C7C7C7C7C4F7C7C7C7C7C7C7C7C5E7C3F
:100844004F3A5E5E5E7C3A7C7C7C7C654F717C7C3E
:10085400717C4F7C7C4F6378062262F3C60363701D
:100864000130D3E76378072262F3C6036370013073
:10087400CCE76378082262F3C603637001302378FF
:1008840043F002032370C1E763786FF3C603637018
:10089400BCE7A278012161F30202A270627802F03F
:1008A4007802402A10D0632B13D02378C3F340027C
:1008B400154365F34103237002B070BDA278022191
:1008C40061F30202A270E9E7217841F0010121708D
:1008D400E9E7151E18BF0125E7E7A378042262F3B0
:1008E4000203A3700125E0E7A378032262F3020365
:1008F400A370637803F07803402BD6D10125D4E7A5
:10090400A378032262F30203A370637813F0780FD1
:10091400CBD00125C9E7237843F001032370C4E752
:100924002DE9F04F91B006460D46914603930024FD
:1009340099F80000002800F0D582252808D009F194
:1009440001092946B0470028C0F2CD820134EFE7FF
:100954000023049305930693079308930993494648
:1009640006A8FFF753FE02909DF8193013F0010F0B
:1009740000F09780039B1A1D03921F68002FC0F29A
:1009840088809DF8193013F0040F00F09C80039BBD
:100994001A1D0392D3F800A0BAF1000FC0F28A80A6
:1009A4000023079308939DF81A3003F007039DF87A
:1009B4001910C1F3C301012B00F08E80022B00F04B
:1009C400D380042B00F02481032B00F03B819DF89D
:1009D400188018F0030B40F03B819DF81B30253B39
:1009E400532B00F2E681DFE813F04001E401E40157
:1009F400E401E401E401E401E401E401E401E401CB
:100A0400E401E401E401E401E401E401E401E401BA
:100A1400E401E401E401E401E401E401E401E401AA
:100A2400E401E401E401E401E401E401E401E4019A
:100A3400E401E401E401E401E401E401E401E4018A
:100A4400E401E401E401E401E401E401E401E4017A
:100A54008101E401E401E401E401E401E401E401CD
:100A6400E401E401E4015E016701E401E401E4015D
:100A7400E4016701E401E401E401E401BE01810150
:100A8400A201E401E4014D01E4018101E401E40176
:100A940081019DF8183043F004038DF818307F422B
:100AA4006FE79DF91830002B02DB4FF0FF3768E742
:100AB400079F66E79DF819306FF341038DF81930ED
:100AC4004FF0FF3A6CE713F0020F02D0DDF820A0DC
:100AD40066E74FF0FF3A63E7CB1E042B04D8DFE848
:100AE40003F00B1D29353500039B1A1D03921B6867
:100AF400DA170493059206E0039B1A1D03921B6800
:100B0400DA1704930592012928D002297FF45FAFF4
:100B1400BDF91030DA170493059258E7039B0733A5
:100B240023F0070303F108020392D3E90023CDE97C
:100B34000423E8E7039B073323F0070303F10802C8
:100B44000392D3E90023CDE90423DCE7039B1A1DB8
:100B540003921B68DA1704930592D4E79DF81030CA
:100B640004930023059332E7CB1E042B04D8DFE85B
:100B740003F00B1F35414100039B1A1D03921B68B0
:100B84000493002305931EE09DF81B30632B07D0CC
:100B9400039B1A1D03921B6804930023059312E020
:100BA400039B1A1D03921B680493002305930AE018
:100BB400039B073323F0070303F108020392D3E9ED
:100BC4000023CDE9042301291CD002297FF4FFAEC0
:100BD400BDF81030049300230593F8E6039B073314
:100BE40023F0070303F108020392D3E90023CDE9BC
:100BF4000423E8E7039B1A1D03921B680493002354
:100C04000593E0E79DF81030049300230593DEE696
:100C140008290BD0039B073323F0070303F10802D1
:100C24000392D3E90023CDE90423D0E6039B0733E1
:100C340023F0070303F108020392D3E90023CDE96B
:100C44000423C4E6039B1A1D03921B680493BEE6A7
:100C5400029F3B464A462946304604F06CFC002875
:100C6400C0F241810444B94662E629462520B047D2
:100C74000028C0F238810134D8460DF13E0A4FF005
:100C840000099BE0DDF81090BAF1000F07DB514634
:100C9400484604F029FD09EB000AD8468EE0484690
:100CA40004F019FDF7E7049B8DF82830D8460DF1C0
:100CB400290A0DF1280981E018F0080F05D118F070
:100CC400100804D04FF0200801E04FF02B08049ADC
:100CD400059B002B02DB0492059308E0524263EB70
:100CE4004303049205934FF02D0800E0D8460DF11C
:100CF4003E0300930AAB06AADDE9040104F0B1FB4C
:100D04008146BAF1000FC0F288800DF13E03A3EBD7
:100D140009039DF818206FF386128DF818209A4560
:100D24007ED9AAEB030307930DF13E0A46E004982B
:100D340028B9D846DFF8B4A1AAF105093EE00DF1BF
:100D44003E0300930AAB06AA002104F08AFB814605
:100D54009DF81A3043F010038DF81A3078238DF87B
:100D64001B30D846CDE7049A9DF81930C3F3C3036A
:100D7400072B06D8DFE803F0040B0D0F1115191B20
:100D84001460D8460DF13E0A4FF0000916E01470C5
:100D9400F7E71480F5E71460F3E7E3171460536092
:100DA400EFE7E31714605360EBE71460E9E71460BE
:100DB400E7E7D8460DF13E0A4FF00009B9F1000FFC
:100DC40000F08D80AAEB0903B8F1000F00D00133C5
:100DD4009DF81A2012F0100F25D0023307990B4406
:100DE40012F0400F01D0089A1344002F31DDFF1A8E
:100DF4009DF8183013F0040F2BD113F0400F17D0C7
:100E0400B8F1000F17D029464046B04700286ADBE6
:100E14000134D8464FF0300B0FE00DF13E0ACDE718
:100E24000DF13E0ACAE712F0080FD7D00133D5E717
:100E34004FF0200B01E04FF0300B3B465F1E002BC0
:100E440007DD29465846B04700284CDB01343B46B1
:100E5400F4E7B8F1000F05D029464046B047002812
:100E640041DB01349DF81A30C3F30012C3F3C0030D
:100E7400134305D029463020B047002833DB013422
:100E84009DF81A3013F0100F06D029469DF81B0068
:100E9400B047002827DB0134079B03F1FF38002B00
:100EA40007DD29463020B04700281CDB01344346C7
:100EB400F3E753464A462946304604F03CFB0028F3
:100EC40011DB0444002F07DD29462020B047002809
:100ED40009DB0134013FF5E7DDF8089028E5DDF88A
:100EE400089025E5204611B0BDE8F08F3D6A00006A
:100EF40008B54FF02002EFF3118382F31288BFF399
:100F04006F8F00F047FD034804F02CF900F0B8FAA5
:100F1400FCE700BF406A00004FF02003EFF3118CA0
:100F240083F31288BFF36F8F0121124BC3F80015AE
:100F3400114A0223C2F8D0361048D0F8003223F008
:100F4400E04343F04053C0F80032D0F8043223F0B9
:100F5400E04343F04053C0F80432C2F80417C2F827
:100F64000419C2F8001B8CF31188BFF36F8F0020A3
:100F7400704700BF0010005000400050002584500E
:100F840070B108B50246074B1B680748A0FB031362
:100F94009B0C03FB02F0054B43F00103984708BD8B
:100FA400704700BF4000002083DE1B43306A00000E
:100FB400062800D07047044B0122C3F80025BFF374
:100FC4004F8F20BFFDE700BF0040005070B5284B95
:100FD4001D7D05F01F0301229A406909254B03EB8F
:100FE4008103D043D3E8EF1F01EA0004C3E8E64FCE
:100FF400002EF7D10A4200D170BD1F4805EB45020F
:101004009300C1181D4A72B14978C05C04F0AEFA6D
:101014004FF02003EFF3118683F31288BFF36F8F31
:10102400174B1C6810E0002383F31188BFF36F8F04
:10103400EEE70F4B1B7D03EB430399000E4B585C0B
:1010440090470CB1246824B11CB1A268002AF0D1E5
:10105400F7E786F31188BFF36F8F074805EB450563
:10106400AA008118002383504B608B60C4E700BF43
:10107400680900203003002020030020715500007F
:101084001803002070B50446504B1D7D6A09504B6F
:1010940003EB8203D3E8AF3F05F01F02134113F0C3
:1010A400010F15D005EB45034A4A12F82330F3B17A
:1010B400B4F1FF3F2DD103F0A9F94FF02003EFF372
:1010C400118683F31288BFF36F8F434B1C6841E092
:1010D4000146284600F096F80028E3D005EB4503C6
:1010E4003C4A02EB830307C883E80700DAE705F00C
:1010F4001F02012393406D09354A02EB8505DB434A
:10110400D5E8EF2F1A40C5E8E12F0029F8D10020D7
:101114005AE005EB45032F4A02EB83039868410C20
:10112400C0032E4BC0182E4A4FF0000341F10001BA
:10113400FFF70EF80121201A05F09AFABBE7234BBA
:101144001B7D03EB4303234911F8230090470CB1A3
:10115400246824B11CB16268002AF0D1F7E786F351
:101164001188BFF36F8F05F01F03012199406B09AC
:101174001C4A02EB8303D3E8EF2F0A43C3E8E02FB2
:101184000028F8D1184B4BB1124B05EB450203EB89
:101194008201497813F82200FFF70AFFFFF716FFD0
:1011A40005F01F03012404FA03F36D09084A02EB56
:1011B4008505DB43D5E8EF2F1A40C5E8E12F002968
:1011C400F8D103F045FB204670BD00BF680900203C
:1011D4002C03002020030020180300203F420F00AE
:1011E40040420F0030030020B50F0000044B03EB16
:1011F4008003D3E8AF0F003818BF0120704700BF49
:10120400340300202DE9F04182B00E4601A900F01C
:1012140043F8441E24B207E0B6F1FF3F32D0404405
:10122400B0422FD9013C24B2002C2ADB019B04EBF1
:10123400440203EB820513F82200FFF7D7FF0028CE
:10124400F0D16868410CC003104FC019104A4FF028
:10125400000341F10001FEF77BFF8046AB68590CA7
:10126400DB03D8190A4A4FF0000341F10001FEF7ED
:101274006FFF084B1B68B3F1FF3FCDD08342CBD83F
:10128400D0E70025284602B0BDE8F0813F420F00B8
:1012940040420F000400002008B9024B0B600020FC
:1012A400704700BF6C6A000008B5024803F00AFEEC
:1012B40008BD00BF6C6A000008B308B54368042B7E
:1012C40007D0082B12D0FBB1006802F095FF002074
:1012D40014E003680022D3E8EF1F012903D1C3E817
:1012E400E02F0028F7D10DD1104607E003681B78E2
:1012F40003F580730020054A42F8230008BD6FF40B
:10130400E04070470248F9E70248F7E7000003505D
:10131400E98FFFFFEA8FFFFF70B308B54368042B22
:1013240004D0082B0FD0C3B915480BE00368012281
:10133400D3E8EF1F002903D1C3E8E02F0028F7D139
:1013440016D1002008BD03681B7803F580730D4A8D
:1013540052F8233073B90020F4E700684FF0FF32ED
:101364004FF0FF3302F0BEFE0028EBD00648E9E759
:101374000548E7E70448E5E76FF4E040704700BF3D
:10138400EA8FFFFF00000350E98FFFFF10B504460A
:1013940088B16368042B0DD0082B0BD053B113F024
:1013A400020F0DD02146094804F0A5FF0023236055
:1013B4000023636010BD064B5B6806489847E8E766
:1013C40014220021206804F0C8F9F1E7500300203A
:1013D400CC000020746A000010B5044678B163683C
:1013E400042B0BD0082B09D00BB9236863B12068F8
:1013F40004F0EAFF636843F00103636010BD0F4B20
:101404005B680F489847EAE74FF0FF324FF0FF332D
:1014140021460C4802F038FD08B923681BB9074B74
:101424005B680948984714220021206804F095F964
:10143400636843F002036360D9E700BFCC00002077
:10144400746A0000500300209C6A000008B5402321
:1014540014220449044804F040FF0449044803F0FA
:1014640093FD08BD6C03002050030020DC6A0000DB
:10147400CC6A0000014910220A60704710ED00E0B8
:1014840072B6404080F31188BFF36F8FBFF34F8F64
:1014940030BF62B6BFF36F8F704700BF72B649406A
:1014A40081F3118820BF80F3118862B6704700BFB2
:1014B40040B2002807DB00F01F02400901239340DB
:1014C400014A42F82030704700E100E04209054B30
:1014D40053F8222000F01F00012303FA00F010400B
:1014E400704700BF00E100E0013140B2002808DB92
:1014F4004901C9B200F1604000F5614080F8001371
:10150400704700F00F004901C9B2014B19547047EC
:1015140014ED00E030BFFFF7FDBF00BF08B50B4B73
:101524000B4A22F07F029A60BFF34F8FBFF36F8F95
:10153400D3F8882022F47002C3F8882002F0F2FB6A
:1015440003F0F2FA00F0DCF902F048FC00ED00E0F0
:10155400000000000A4A9368C3F8A8000949096812
:10156400C3F8AC1008494B6843F080534B60002328
:1015740083F31188BFF36F8F9368D3F8AC0070477F
:1015840068090020386C000000ED00E014498A6806
:101594004FF030001044EFF3098C80E8F01F202056
:1015A40080F31288BFF36F8F0E4F4FF00066CA6945
:1015B4008A603E60D2F8A8000023C2F8A83080F305
:1015C400118802F1300090E8F01F8CF3098802F1D1
:1015D400000004B503F0EAFFBDE8044070470000D2
:1015E4006809002004ED00E01EF0040F0CBFEFF3C7
:1015F4000880EFF30980816911F8021C0229FFD0E9
:1016040001B503F0C1FF01BD10B4A2F120040E49DD
:1016140042F8081C21F0010142F8081C42F8203C61
:10162400019B42F81C3C029B42F8183C039B42F885
:10163400143C4FF0807342F8043C04650023C0F866
:10164400A83010BC704700BF2F540000094B9860AD
:10165400D0F8983083F30B88104681F30988002171
:1016640063B681F31188BFF36F8F0022002303F068
:10167400DCFE00BF6809002001B572B60B4A906910
:1016840000281EBF0021916104F082FE62B6EFF3D0
:101694000580A0F110004FEAC0000549014409C9C2
:1016A4009847BDE801400349084700006809002045
:1016B4009C670000BD160000044B9968D8698842F5
:1016C40003D003494FF080520A6070476809002034
:1016D40004ED00E010B51446184B9A6A9A6A9B6AA6
:1016E40013F0020F0BD0154B5A6B9B6A13F0800F4B
:1016F40005D021B1114A936A23F0800393620F4B02
:101704009A6A9A6A9B6A13F0100F01D10B4B9B6A79
:101714000A4B9B6A13F0200F04D0084A536A23F43F
:1017240000535362054A936A43F0FF039362012115
:1017340003F041FF2070002010BD00BF00ED00E069
:1017440010B51446124B9A6A9A6A9B6A13F4007F86
:101754000BD00F4B9A6B9B6A13F4004F05D021B149
:101764000B4A936A23F400439362094B9A6A9B6A77
:1017740013F4807F01D1064B9B6A054A936A43F4B4
:101784007F439362012103F016FF2070002010BDF7
:1017940000ED00E00A4B9A6A9A6A986A10F4801085
:1017A4000BD1074B9A6A9A6A9A6A9A6A9A6A6FEA9A
:1017B40002426FEA12429A6270470220F1E700BFC8
:1017C40000ED00E008B5844600230B701B4BD86A7B
:1017D40010F002002ED1DB6A002B2CDB174BDB6AE6
:1017E40013F0804328D0DCF8183033F8022C4DF67F
:1017F40002739A420FD0114B93F8283073B90F4BF0
:1018040093F8293083B90D4B5B8D9BB29BB1604635
:10181400FFF7C0FF0FE0DCF800000CE00A460121EE
:101824006046FFF757FF06E00A4601216046FFF7CE
:1018340087FF00E0002008BD1846FCE700ED00E04B
:1018440070B58AB00C46224B5968C1F308010023D5
:1018540083F31188BFF36F8F02F07F43B3F17F4F9F
:1018640015D102F00C03082B14D012F0080F0BD082
:1018740000260DF12702204603F0A2FE05469DF83E
:10188400273053B10AB070BD04460126F1E70026A3
:101894003446EEE700263446EBE72022214601A831
:1018A40003F02CFF4EB1089BC3F308025AB96FEA48
:1018B40053236FEA4323089305E0089B23F4FF7343
:1018C40023F00103089301A9284603F059FED9E740
:1018D40000ED00E0044B5A6942F010025A615A6963
:1018E40042F480625A61704700ED00E0EFF3088033
:1018F400EFF3098101B57246FFF7A2FF01BD00BFF6
:10190400002207E003F1604303F56143202183F8DB
:1019140000130132442A09DC53B2002BF2DA02F03C
:101924000F01034B0B4420211976F2E7704700BFE7
:10193400FCEC00E0002080F31488BFF36F8F0020DC
:1019440080F30A8880F30B8804F0C8FE00200E4957
:101954000860BFF34F8F0D4880F3088800F040F80B
:10196400202080F311880A484FF40061401880F366
:101974000988EFF314800221084380F31488BFF32D
:101984006F8FFFF7CBFD000094ED00E0800F002087
:10199400C0100020BFF34F8F0549CA6802F4E0620B
:1019A400044B1343CB60BFF34F8F00BFFDE700BF71
:1019B40000ED00E00400FA05084BD3F89000C0F3F2
:1019C4000720002306E0054AC2F898300021C2F837
:1019D400A01001338342F6DB704700BF00ED00E046
:1019E40010B572B6002484F31388FFF7E5FF23468D
:1019F40008E003F120010E4A4FF0FF3042F82100C5
:101A04000133DBB20F2BF4D9002308E003F16001AA
:101A1400074A4FF0FF3042F821000133DBB20F2BAD
:101A2400F4D962B6BFF34F8FBFF36F8F10BD00BF01
:101A340000E100E008B50A4B9B68834202D003F042
:101A44004BF808BDEFF30583002BF8D0054B5A681B
:101A540042F080525A605A6A22F400425A62EEE717
:101A64006809002000ED00E010B584B00A4C23465C
:101A74000A4A01210A4803F00CFE00230193029351
:101A84000393084B0193E41A0294012101A803F083
:101A940004FE04B010BD00BF0000072000000020B9
:101AA400F06A000090010020024B034AC3F8C020F2
:101AB400704700BF00ED00E0AAFF44000B6823F06C
:101AC4001F0291F808C00CF01F031A43CB6823F0DF
:101AD4001F034FEA5C1C43EA4C0343F0010304492F
:101AE400C1F89800C1F89C20C1F8A030704700BF2D
:101AF40000ED00E02DE9F04F87B08146009101939D
:101B04001446002738E06FF0150658E0D84571D127
:101B14002946F0B203F09EFD2DE05F4BC3F8980018
:101B2400D3F89C1001F01F0122F01F020A43C3F8EE
:101B34009C202946E0B203F08DFD044610F1160FF7
:101B440000F0A380013416E0013B5349C1F898002A
:101B5400D1F8A02002F01F0223F01F031343C1F8A1
:101B6400A0302946E0B203F075FD044610F1160FCB
:101B740000F08B8001340137009B9F4280F2858006
:101B840007EB47054FEA850A09EB8505D5F804807C
:101B9400B8F1000FEFD0019B23B1284603F03DFDBF
:101BA40000286ED059F80AB0584603F02CFD0646BA
:101BB40008EB0B00013803F026FD8642A3D116F191
:101BC400160F61D0B44264DD3046334BC3F89860DD
:101BD400D3F89C1021F01F01C3F89860D3F8A0300B
:101BE40043F01F0859F80A306A681A4402F1FF3BAF
:101BF40099428BD0994290D0D845A5D0013B264933
:101C04000646C1F89800D1F8A02002F01F0223F084
:101C14001F031343C1F8A0302946E0B203F01AFDB4
:101C2400044610F1160F30D001301B4BC3F89860F6
:101C3400D3F89C109DF8102061F304028DF8102055
:101C4400D3F8A030C3F34203D2B263F347128DF842
:101C5400102059F80A306A681344029323F01F03D2
:101C6400A8EB0B084344013B23F01F03059302A98F
:101C7400C0B203F0E4FC044610F1160F05D00134A1
:101C840079E76FF0150400E03446204607B0BDE85C
:101C9400F08F6FF01504F8E700ED00E010B5034C89
:101CA40001232278FFF726FF207010BD7C0B002053
:101CB4002DE9F84307468846002403E06FF0150534
:101CC40017E00134A04543DD04EB44039A0007EB1D
:101CD40083035E68002EF4D057F80290484603F060
:101CE40092FC054606EB0900013803F08CFC8542A2
:101CF400E4D104EB84031A4A42F8235015F1160F79
:101D040027D0184B1B78AB4226DD04EB8402144B1E
:101D140003EB8202144BC3F89850C3F89850D3F8DD
:101D24009C50107B65F304001073D3F8A000C0F33B
:101D34004200157B60F347151573D3F89C0020F01F
:101D44001F005060D3F8A03023F01F031361B8E7DD
:101D540000252846BDE8F8836FF01505F9E700BFB4
:101D64006C0800207C0B002000ED00E0044B0522F1
:101D7400C3F89420BFF34F8FBFF36F8F704700BF3A
:101D840000ED00E0BFF35F8F024B0022C3F8942004
:101D9400704700BF00ED00E038B50E4B1D68082DFC
:101DA40015D8FFF7EFFFFFF77FFE002407E0094B8C
:101DB400596801EB04112046FFF780FE0134A54267
:101DC400F5D8054B1D70FFF7D1FF002038BD4FF04B
:101DD400FF30FBE70C6B00007C0B0020014B18600C
:101DE400704700BF28000020004870470809002001
:101DF400034BC01A8010034B03FB00F0704700BF75
:101E040090080020B76DDBB638B505460C46FFF7E1
:101E1400EFFF01464022034803F035FD0146284602
:101E2400A04738BD3C67000030B583B005460C467A
:101E3400FFF7DEFF0146402300932346054A064888
:101E440003F03BFD011E01DB03B030BD2846A04773
:101E5400FAE700BF075900003C67000008B50528F1
:101E640015D8DFE800F0031A1414151000210D48EA
:101E740003F094FC836813F0070F08D1002109488C
:101E840003F0EFFC03E00221064803F0EAFC08BD7E
:101E94000321044803F0E5FCF9E70121014803F0BC
:101EA400E0FCF4E73C67000010B54FF02003EFF3CB
:101EB400118483F31288BFF36F8F134A136843F0BE
:101EC4000203136013F0010F08D1002384F3118877
:101ED400BFF36F8F9BB903F01CFD10BD4FF050236F
:101EE400D3F80C24D3F80C3412F0010F01D10023E1
:101EF400ECE7FFF779FF03F0A1FC0123E6E70021FB
:101F0400024803F0AEFCE8E7300900203C6700001B
:101F140008B5084BD3E8EF2F22F00201C3E8E01F15
:101F24000028F7D112F0010F00D008BD03F005FD21
:101F3400FBE700BF3009002000B585B0CDF800D024
:101F4400CDF804D000230293012303936B46074A80
:101F540003F0CFFC002805DB4FF4804200236846E1
:101F640002F0B2F905B05DF804FB00BF6759000048
:101F740070B50646002201210520FFF7B5FA114885
:101F840001F0E8F8104B984219D104F0B5F8002498
:101F9400032C12D82146304603F000FC05462146A6
:101FA400304603F006FC094903F0C6F9002805DBB6
:101FB4000123AB601C44E4B2EAE7002070BD6FF07B
:101FC4000400FBE7611E00000000AD0B746B000011
:101FD40070B50546012807D14FF05023D3F81C34BF
:101FE40003F00303022B3FD004F0BDF920B9314BB9
:101FF4001B789BB1002300E001231C4683B14FF002
:102004002003EFF3118683F31288BFF36F8FA4B913
:102014004FF050230222C3F808230EE00123ECE71B
:102024000026F4E70CB33046FFF738FA4FF050239C
:10203400D3F81835DBB2012B1CD04FF05022D2F864
:10204400183403F00303D2F8182412F4803F28D183
:102054000022002AE6D0022B01D0012DE2D114B3D4
:1020640086F31188BFF36F8F70BD2120002102F029
:1020740001FDDBE74FF05023D3F80431002BDCD013
:102084004FF050230022C3F80421D3F80421022284
:10209400C3F81825084A2021C2F8801101229A6049
:1020A400CBE70122D5E74FF050230222C3F80423E3
:1020B400DAE700BF7D0B002000E100E010B5044624
:1020C4000E4B0121D3E8EF2FC3E8E01F0028F9D11C
:1020D4001AB1631E012B0DD910BD094803F069FB29
:1020E400084900234B608B60CB6001238B6003F0B5
:1020F40040F9EEE72046FFF76BFFEDE734090020D7
:102104003C6700008008002010B504460A2807D068
:10211400074B1868E1B283685B689847204610BD96
:10212400034B186883685B680D219847F0E700BF8C
:102134003809002010B5044C2046FFF74FFE204616
:10214400FEF7A2F910BD00BF0D21000008B5064836
:10215400064B186004F07BF818B1FFF7EBFF002082
:1021640008BD6FF01200FBE7846700003809002007
:1021740028B1012801D10348704700207047024864
:10218400704700BF546700006C670000F0B585B06D
:102194000E46194643681B7B06F01F0545EA4315A6
:1021A400B2F5001F22D0074614460023029303937E
:1021B400104603F04DFC8DF808007B689968F140E7
:1021C40011F0010F02D1B4F1A07F14D0002302AAB0
:1021D4001946284601F052FA1A4B98422FD1012190
:1021E400284601F02DFC002005B0F0BD284601F082
:1021F40089FC0020F8E705F01F036A09012A12D0C0
:10220400114A803352F8233013F0010FDED10DF15F
:102214000701284601F0B8FB0C4B984205D00DF19C
:1022240007030393D2E70A4AEBE70DF1070001F035
:10223400FFFB044B9842F2D06FF00B00D4E76FF031
:102244000400D1E70000AD0B002584500400AD0B61
:102254000028845030B583B004460DF1070101F025
:1022640093FB0546204601F07DFC0B4B98420FD1B1
:102274009D4205D0084B984207D1002003B030BDE1
:102284009DF8070001F0CCFBF4E76FF00400F5E7DC
:102294006FF00400F2E700BF0000AD0B2DE9F0433E
:1022A40087B0D0F8048098F80C3001F01F0545EA97
:1022B4004315002A43D00C4617460026039604967D
:1022C4000DF11701204601F05FFB8146334603AA56
:1022D4003146284601F0D2F92F4B984259D19945FD
:1022E40035D017F4003F41D00DF10301384603F017
:1022F4003DFB064638BB9DF803308DF8043017F4D7
:10230400803F0CBF012300238DF80530384603F0CD
:1023140073FB8DF8060017F4002F1DD0D8F8043095
:10232400012101FA04F49C60002201A9284601F06D
:102334005FFA194B984206D06FF0150603E0284661
:10234400FFF788FF0646304607B0BDE8F0839DF8E6
:10235400170001F065FBC4E717F4802FE4D0D8F828
:102364000420012303FA04F4D460DDE7384603F0C3
:1023740043FB8DF8080000231A4602A9284601F001
:102384007DF9054B984201D10026DCE76FF0150674
:10239400D9E76FF01506D6E70000AD0B08B501F0DC
:1023A40035FB08B1002008BD01F006FB084B98423C
:1023B4000AD10021074801F0E1FA002205210D208D
:1023C400FFF792F80020EEE76FF00400EBE700BFA0
:1023D4000000AD0BF35A000043681A68B1F5164FBC
:1023E4006FD03AD8B1F5165F6ED00AD9B1F5E14F86
:1023F40075D024D947F6122399422BD14FF4000308
:1024040013E0B1F5966F61D007D9B1F5166F63D0BB
:10241400B1F5965F10D13C4B07E0B1F5967F58D0EB
:10242400B1F5167F05D14FF41C33C2F824350020D2
:1024340070476FF0150070476FF015007047B1F5E5
:10244400615F4ED0B1F5964F01D1304BEDE76FF09F
:10245400150070476FF015007047B1F5613F42D029
:1024640009D9B1F5612F46D01FD9294B994248D1DA
:102474004FF08053D9E7B1F5963F37D005D9B1F580
:10248400E13F0FD14FF0EB73CFE74DF6C0239942F4
:102494002ED0B1F5614F02D14FF46B03C5E76FF055
:1024A400150070476FF0150070471A4B994225D0FC
:1024B400B1F5E12F02D14FF0E863B6E76FF01500F4
:1024C40070474FF41D03B0E7134BAEE74FF49E2360
:1024D400ABE74FF4A033A8E74FF41D23A5E70F4B58
:1024E400A3E70F4BA1E74FF06C739EE70D4B9CE7FE
:1024F4004FF4650399E74FF0706396E74FF08063FC
:1025040093E76FF01500704700B0130000A04E0071
:1025140040420F0090D003000050270000C0750017
:1025240000F03A0000903A012DE9F04105460F46CB
:10253400D0F8108003F017FF20B9164B1B7843B175
:10254400002300E0012353B9284603F0F6FB0646B6
:1025540013E00123F7E784F31188BFF36F8F4FF083
:102564002003EFF3118483F31288BFF36F8F2646A1
:10257400284603F094FB0028EDD0414601F8107F73
:102584000122284603F0A5FB86F31188BFF36F8F61
:10259400BDE8F0817D0B002038B505460C4601F1FD
:1025A400120000F04DFE0A4B98420ED1A37C43F07A
:1025B4000043C5F8A031C5F88C30A27C01239340B8
:1025C400044AC2F80435002038BD6FF00400FBE76C
:1025D4000000AD0B0070015021F07F4100F5A870A0
:1025E400014B43F8201070470050015000F5A870CB
:1025F400014B53F820007047005001504FF48033D2
:102604008340024AC2F84433704700BF005001506F
:102614004FF480338340024AC2F84833704700BF06
:1026240000500150014BD3F804057047005001508D
:1026340010B5012383406FEA030C0D4AD2E8EF1F63
:1026440001EA0C0EC2E8E4EF002CF7D14FF480321B
:1026540002FA00F002F15022C2F80803BFF35F8FC0
:10266400BFF36F8F0B4214BF0120002010BD00BFC9
:102674005809002070B5044603F00AFC05464FF4DF
:102684008033A340154AD2F80423134205D100260F
:10269400284603F006FC304670BD0123A340DB430B
:1026A4000F4AD2E8EF1F01EA0300C2E8E60F002E4A
:1026B400F7D159B904F150039B009BB203F15023A5
:1026C40003F580331B6813B1012300E001231E4688
:1026D400002BDDD0204603F0CCFBD9E7005001509D
:1026E4005409002001B97047012383400E4AD2E8FF
:1026F400EF1F1943C2E8EC1FBCF1000FF7D14FF4F0
:1027040080338340094AC2F80433094BD3E8AF3F0E
:1027140023FA00F010F0010FE5D0064B4FF400123D
:10272400C3F80021DFE700BF580900200050015022
:102734005409002000E100E02DE9F843074614465F
:102744001E461046194603F0A0FB0546154B1A68B1
:10275400A01A1C605E60A5F50013B3F5400F09D301
:10276400002402F0CFFA3846FFF740FFA8420ED00B
:10277400BDE8F8830C4B1B681A0A1B0615EB03080B
:1027840042F10009094BC3E900890124E9E71CB1BE
:102794003846FFF733FFEBE74FF400013846FFF705
:1027A4001BFFF5E7A80100205C0900209001002030
:1027B40038B50D4B1C68250A2406BFF35F8FFFF75D
:1027C40031FF0346001945F10001B3F5801F0AD219
:1027D400064BD3E90023904271EB030303D210F1BB
:1027E400807041F1000138BD5C0900209001002097
:1027F400F8B5064614461D461046194603F045FB37
:102804000746FFF7D5FFA04271EB05031DD2231A3B
:1028140065EB0101194A934271F100032BD2184B65
:1028240003EB0613D3E90223AB4208BFA24216D03E
:102834003946304603F03AFB394603F016FB0019DB
:1028440045F1000304461D4609E00123B3400D4A47
:10285400D2E8EF1F1943C2E8E01F0028F8D1084B63
:10286400320103EB0616C6E9024506999950079B07
:1028740073600020F8BD6FF01500FBE70100000154
:10288400980100205409002030B583B000231D4A6C
:10289400C2F80835002B24DD1A4C0225C4F8045371
:1028A400194B4FF40012C3F8802100220121152096
:1028B400FEF71AFE1520FEF7FBFD0123A36023603B
:1028C400124A136000240194114B0093114A00230F
:1028D400204603F026FB2846FFF7F0FB204603B012
:1028E40030BD0D4A02EB03124FF0FF304FF0FF31C1
:1028F400C2E902014FF480329A400249C1F804232C
:102904000133C7E70050015000E100E058090020FE
:102914003D270000FFFF7F00980100202DE9F047CC
:1029240082B00446FFF7A6FE10B902B0BDE8F087F6
:10293400FFF73EFF82460E4603F0AAFA0546134B04
:1029440003EB0413D3E90289C24576EB09030BD2E6
:102954000026284603F0A5FA002EE6D0009742464A
:102964004B462046B047E0E7084A230102EB041136
:10297400D6584F680020D0504FF0FF324FF0FF334D
:10298400C1E902232046FFF743FEE2E79801002055
:1029940010B50E4BD3F8043313F0020F0DD00B4BCC
:1029A400D3F804314BB1094B0022C3F80421D3F806
:1029B4000431074A1368013313600024002C00DD3E
:1029C40010BD2046FFF7AAFF0134F7E7005001507D
:1029D4005C09002010B582B0B0F1FF3F06D0012899
:1029E40006DDB0F5000F05DA441E04E00F48F8E7F1
:1029F400002400E00D4CFFF7DBFE0D4B19685B680B
:102A0400401AB0F5000F00D300242044421CB2F554
:102A1400000F00D3054A00208A180190054900914F
:102A240043F1000303F07DFA02B010BDFFFF7F0005
:102A3400A80100203D27000008B5FFF7B9FE024BAE
:102A44001B68C01A08BD00BFA801002010B510F40F
:102A5400805F01D001220021C0F3811EC0F3032C4A
:102A640000F01F0310F0200F10D1094C03F1800077
:102A740054F8203003F0E04341EA420141EA8E0178
:102A840041EA0C21194344F8201010BD014CEDE734
:102A940000258450002884502DE9F04106460F4655
:102AA4009046002415E005F03F05C8F80C5556F88B
:102AB400241001F01F0211F0200F5FD1BB4D012142
:102AC40001FA02F2AA600A463058FFF7BFFF013448
:102AD400E4B2BC4280F0B081A00056F82450C5F3A3
:102AE40003232A0C222A00F2A98101A151F822F021
:102AF400AB2A0000852B00009B2B0000C92B000093
:102B0400DF2B00000D2C00003B2C0000412E0000A8
:102B1400412E0000412E0000412E0000512C0000E7
:102B2400692C0000412E0000412E0000412E0000BF
:102B3400412E0000412E0000412E0000412E0000D5
:102B4400412E0000412E0000812C0000CD2C0000FD
:102B5400192D0000652D0000412E0000412E0000BB
:102B6400412E0000B92D0000CF2D0000E52D0000FE
:102B7400FB2D0000112E0000272E00008C4D9EE737
:102B840005F03F05C8F814550022114656F82400F4
:102B9400FFF75CFF9BE705F03F05C8F8085556F8BA
:102BA400241001F01F0211F0200F09D17F4D0121E3
:102BB40001FA02F2AA600A463058FFF747FF86E797
:102BC4007B4DF4E705F03F05C8F810550022114687
:102BD40056F82400FFF73AFF79E705F03F05C8F8F7
:102BE400085556F8241001F01F0211F0200F09D1E6
:102BF4006E4D012101FA02F2EA6000223058FFF71B
:102C040025FF64E76A4DF4E705F03F05C8F80C5565
:102C140056F8241001F01F0211F0200F09D1634D62
:102C2400012101FA02F2EA600A463058FFF70EFF6A
:102C34004DE75F4DF4E705F03F05C8F81055002255
:102C4400114656F82400FFF701FF40E705F03F0561
:102C5400C8F8085503B90623002211463058FFF777
:102C6400F5FE34E705F03F05C8F80C5503B9062313
:102C7400002211463058FFF7E9FE28E705F03F052A
:102C8400C8F8605556F8242002F03F0112F4005FA2
:102C94000FD101F01F054A0909D144490122AA4074
:102CA400CA60012211463058FFF7D0FE0FE74049B1
:102CB400F4E701F01F054A0904D13C490122AA4066
:102CC4008A60EEE73A49F9E705F03F05C8F864552C
:102CD40056F8242002F03F0112F4005F0FD101F0F6
:102CE4001F054A0909D131490122AA40CA600122BB
:102CF40011463058FFF7AAFEE9E62D49F4E701F042
:102D04001F054A0904D129490122AA408A60EEE735
:102D14002749F9E705F03F05C8F8685556F8242017
:102D240002F03F0112F4005F0FD101F01F054A09C0
:102D340009D11E490122AA40CA6001221146305815
:102D4400FFF784FEC3E61A49F4E701F01F054A09B8
:102D540004D116490122AA408A60EEE71449F9E732
:102D640005F03F05C8F86C5556F8242002F03F01E1
:102D740012F4005F0FD101F01F054A0909D10B4974
:102D84000122AA40CA60012211463058FFF75EFEB4
:102D94009DE60749F4E701F01F054A0904D10349F8
:102DA4000122AA408A60EEE70149F9E70025845030
:102DB4000028845005F03F05C8F82455012200215D
:102DC40056F82400FFF742FE81E605F03F05C8F8F7
:102DD40028550122002156F82400FFF737FE76E635
:102DE40005F03F05C8F830550122002156F82400AB
:102DF400FFF72CFE6BE605F03F05C8F834550122B9
:102E0400002156F82400FFF721FE60E605F03F0597
:102E1400C8F838550122002156F82400FFF716FEA1
:102E240055E605F03F05C8F83C550122002156F847
:102E34002400FFF70BFE4AE6002001E06FF0850056
:102E4400BDE8F0814FF05023D3F8582502F0030277
:102E5400024BD340024A1360704700BF0020A10711
:102E64004000002008B503F015F968B13E4BD3F8D3
:102E7400203A4BB93C4B0D22C3F8202A0122C3F857
:102E84001C290022C3F81C2900220BE002F1600374
:102E94004FF47F0151F83310DB0003F57F035B68C7
:102EA4000B6001321F2A08D802F160034FF47F013E
:102EB40051F83330B3F1FF3FE8D103F0C3F830B138
:102EC400294B2922C3F80C270322C3F83C2703F01B
:102ED4006DF840B1254B264AC3F830254FF05023F6
:102EE4000122C3F8582503F075F818B1214B0022CC
:102EF400C3F84C2503F086F868B14FF05023D3F89B
:102F0400003413F0010F06D04FF050230022C3F811
:102F14001421C3F8182103F089F860B14FF050234D
:102F2400D3F8003413F0010F05D04FF050236FF0A5
:102F34000102C3F8002403F099F818B10A4B652282
:102F4400C3F80C270C4AD2F88C3043F44063C2F81F
:102F54008C300A4A11680A4BC3F84415D269C3F885
:102F64004C25FFF76FFF08BD004000500090035050
:102F74004400EFBE0020035000ED00E00080FF009D
:102F84000060005010B50468B4FA84F3C3F11F0361
:102F94005FFA83FC002B12DB012202FA03F324EA1A
:102FA4000303D0E8EF2FA24204D1C0E8EE3FBEF104
:102FB400000FF6D1E7D181F800C0024810BD0248E5
:102FC400FCE700BF0000AD0B0200AD0B0368CB4073
:102FD40013F0010F11D100B5026801238B40134394
:102FE400D0E8EFCF944504D1C0E8EE3FBEF1000F26
:102FF400F6D1F1D102485DF804FB0248704700BFE6
:103004000000AD0B0400AD0B70B582B0054603287B
:1030140000F29E80DFE800F0021723314FF05023C6
:103024000222C3F808230022C3F80421D3F80421A0
:103034000122DA6001238DF807309D422BD000264F
:1030440042F210746EE04FF050230122C3F80823BB
:103054000021C3F80011D3F800115A60EAE74FF0D9
:1030640050234FF40072C3F808230022C3F824212C
:10307400D3F8242101225A62DCE74FF050234FF4A5
:103084008072C3F808230022C3F82021D3F820213A
:103094000122DA61CEE70DF10706D1E736B14FF030
:1030A4005023D3F8183403F0030333704FF0502344
:1030B400D3F8183413F4803F44D1002327E036B109
:1030C4004FF05023D3F80C3403F0010333704FF066
:1030D4005023D3F80C3413F4803F35D1002316E089
:1030E40036B14FF05023D3F85C3403F0010333704E
:1030F4004FF05023D3F85C3413F4803F26D10023DF
:1031040005E04FF05023D3F85434C3F30043FBB12C
:103114001EB19DF80730012B1AD1012002F0D1FF16
:10312400013C15D0032D0BD801A353F825F000BFA3
:10313400A1300000C3300000E5300000073100007A
:103144000023E4E70123E2E70123E0E70123DEE7CC
:1031540002B070BD054B1B792BB9044B18600122DA
:103164001A71034870470348704700BF6009002084
:103174000000AD0B0C00AD0B08B54FF05023D3F895
:10318400003163B14FF050230020C3F80001D3F89D
:1031940000210122C3F80823284B1B6898474FF0ED
:1031A4005023D3F80431BBB14FF050230022C3F8AD
:1031B4000421D3F80421D3F8182402F00302D3F82D
:1031C4001834012A31D04FF050230222C3F80823C7
:1031D4001A4B1B68012098474FF05023D3F8203135
:1031E40073B14FF050230022C3F82021D3F82021DB
:1031F4004FF48072C3F80823104B1B6804209847CF
:103204004FF05023D3F8243173B14FF050230022F0
:10321400C3F82421D3F824214FF40072C3F80823FF
:10322400064B1B680520984708BD4FF05023022227
:10323400C3F8182501229A60CEE700BF6009002078
:1032440008B501460148FFF79DFE08BD4400002073
:103254000830034B33F8100000F00100704700BF42
:10326400480000200830034B33F81000C0F340102E
:10327400704700BF480000200830044B33F81000AA
:1032840010F01C0018BF0120704700BF4800002048
:103294000830034B33F81000C0F34000704700BF00
:1032A400480000200830024B33F81000400B7047F0
:1032B40048000020002204E04FF0FF3383420FD087
:1032C40001322F2A0AD802F10803064931F81330D3
:1032D40013F4807FF0D0C3F34323EFE7002070475B
:1032E4000120704748000020002313B14FF0FF3045
:1032F4007047074A52F83320824201D00133F4E781
:10330400034A02EBC30252688A42F7D11846704757
:10331400480000200830064B33F8100010F4807F7A
:1033240004D0C0F3432003EBC00070470020704773
:103334004800002070B504460D46FFF7EBFF20B1AE
:103344000668426829462046B047044B9B6823B16F
:10335400024AD26829462046984770BD480000209A
:1033640000F108020E4B33F8123013F4807F16D0AC
:1033740010B5C3F34324104623F4F853084A22F843
:1033840010302046FFF796FF00B110BD044800231B
:1033940040F8343021467430FFF718FEF5E77047E3
:1033A4004800002010B50446FFF75CFF50B12046EA
:1033B400FFF778FF084B00F5A270002243F82020A5
:1033C40043F820202046FFF7CBFF0834034B0022AC
:1033D40023F8142010BD00BF00D000504800002086
:1033E40070B582B006460C461546FFF7B9FF24B304
:1033F40029462046FFF778FF031E13DB104A42F8E4
:10340400334002EBC3014D605B029BB206F108003E
:1034140032F810100B4343F4807322F8103009483B
:1034240002B070BD0DF107010748FFF7ABFD054B76
:103434009842F5D19DF80730E0E70248F0E700BF75
:10344400480000200000AD0BBC00002038B5044645
:1034540018E094FAA4F3B3FA83F301229A4024EA1D
:1034640002040A4A03F5A27352F82350C5F3052552
:1034740052F82300C0F3014002F0E2FE0146284660
:10348400FFF758FF002CE4D138BD00BF00D0005036
:1034940082B08446104B93E8030002AB03E90300B7
:1034A4006046002309E002AA02EB830252F8082CCA
:1034B400116A40F8041B11620133012BF3D9002374
:1034C400012B04D85CF8232022B90133F8E700204B
:1034D40002B070470120FBE7206A000070B5044683
:1034E4000D461646084602F0ADFEC0B9022E4AD07B
:1034F400022004F01F026109012946D029498032C3
:1035040051F8223023F4403343EA004341F8223097
:10351400032D3ED0022E3AD0032E3FD070BD294653
:103524002046FFF707FF04F01F036209012A24D095
:103534001C4A803352F82330C3F301439E42EDD139
:1035440004F01F036209012A19D01649803351F887
:10355400232022F4403241F8232004F01F0364099D
:10356400012C0ED00F49803351F8232022F440322D
:1035740042EA064641F82360D0E70B4AD9E70A49F4
:10358400E4E70949EFE70320B3E70749B7E7012D6B
:10359400C2D129462046FFF7CDFEBFE7022DBDD19B
:1035A400F7E700BF002584500028845070B584B02C
:1035B4002D4A6B4692E8030083E80300002302A827
:1035C40009E004AA02EB830252F8102C116A40F8B5
:1035D400041B11620133012BF3D940E0234E05F1A2
:1035E400800356F82320C2F30142FFF777FF01233B
:1035F400AB40336204AB03EB840353F8080C08B309
:1036040090FAA0F0B0FA80F000EB441000F1080248
:10361400174B33F81210C1F38201C50800F00702FA
:103624000DF1080C012303FA02F21CF8053023EA19
:1036340002030CF8053000F01F054309012BCDD01F
:103644000C4ECCE70134012CD4D90B4B0022C3F827
:103654007C21D3F87C3102A8FFF71AFF08B10024BB
:10366400F1E704B070BD00BF206A00000028845058
:10367400480000200025845000D000502DE9F0417E
:10368400044615461E4661B30F4602F0C3FD0028EA
:1036940040F0998004F01F026309012B43D04E4887
:1036A40002F1800350F82330002F3ED00C2141F06A
:1036B400030123EA0103002F39D0397889000B4331
:1036C400803240F82230454A04F1080132F81130C2
:1036D40023F002039BB222F8113043F0010322F8D5
:1036E4001130BDB12F78D5F804802046FFF7D0FD06
:1036F400F8B1B8F1000F68D1384A04F1080132F882
:10370400113023F01C039BB222F8113043EA8703E3
:1037140022F81130002E5CD0726831682046FFF721
:103724005FFEBDE8F0812E48BAE70021BFE7002123
:10373400C5E72A4A04F1080132F8113023F02003C6
:10374400DB04DB0C22F81130B8F1000FD4D0032FC6
:103754003DD86B681D7847B9224B05F5A275002248
:1037640043F8252043F82520C6E7384602F069FDD2
:103774001C4B05F5A27253F8221021F0030143F803
:10378400221053F8221021F44F3121F4407143F8F0
:10379400221053F822C0210201F47C51000400F4E9
:1037A400403001434CEA010143F822106B039BB201
:1037B4000A4A04F1080132F81100034343F02003DC
:1037C40022F8113098E70848ABE70748A9E706480C
:1037D400A7E70648A5E700BF00258450480000205D
:1037E4000028845000D000500400AD0B0000AD0B45
:1037F400F8B504461546002953D00E4602F019FDCB
:1038040028B12046FFF72EFD002840F0A280204674
:10381400FFF732FD18B17378012B00F09C8006F19C
:10382400010CB71C04F01F026309012B57D04D494A
:1038340002F1800351F82300BCF1000F51D00223A0
:1038440043F00103002F4ED04FF00C0E43EA0E0359
:10385400002E4BD04FF4706E43EA0E0320EA0300AF
:10386400BCF1000F45D073785B0043F00103002FD7
:1038740041D096F802C04FEA8C0C43EA0C03002EA8
:103884003CD03678360233430343803241F8223049
:10389400354A04F1080132F8113043F0030322F8E9
:1038A4001130002D59D0204602F0C3FC002856D117
:1038B4002B782E4A03F5A27142F8210042F8210028
:1038C400294904F1080031F8102022F02002D20422
:1038D400D20C21F810206A7892B92548F8BD254900
:1038E400A6E70023ACE74FF0000EAFE74FF0000E61
:1038F400B2E70023B9E74FF0000CBEE70026C2E7A9
:10390400AF781A4803F5A27550F8251021F49911DF
:1039140021F4F85140F8251050F82560210201F4F3
:103924007C51120402F440320A43390501F4801137
:103934000A43324340F825205B039BB20A4A083409
:1039440032F814100B4343F0200322F814300848D3
:10395400C4E70948C2E70848C0E70548BEE7064887
:10396400BCE700BF002584504800002000D0005070
:103974000000AD0B002884500400AD0B014B98608F
:10398400D96070474800002038B504460D46FFF75B
:1039940069FC40B104F10800044B33F810305B0BB0
:1039A4002B70034838BD0348FCE700BF48000020E3
:1039B4000000AD0B0400AD0B104B93F878300BB145
:1039C4000F48704710B50D4C6022002104F110001F
:1039D40001F0C3FE0D20FDF76BFD0A4B0022C3F876
:1039E4007C21D3F87C214FF00042C3F80423012347
:1039F40084F878306367044810BD00BF4800002095
:103A04000500AD0B00D000500000AD0B034B93F844
:103A14007800003818BF0120704700BF480000201C
:103A240008B501460148FFF7D1FA08BDB8000020E7
:103A340008B501460148FFF7A5FA08BDB800002003
:103A440038B504460D46FFF70DFC08B3204602F0D6
:103A5400F0FBE8B12046FFF725FC830003F58073F3
:103A64009BB203F1A04303F5504300221A601B6884
:103A7400204A00F5A27152F8213043F0010342F8C4
:103A840021307DB3012303FA00F0C2F8040329E0D6
:103A940004F10803184A32F81330C3F38203042BE9
:103AA40010D0052B1FD004F01F026309012B07D08F
:103AB400124B1B69D34013F0010F16D0032002E010
:103AC4000F4BF6E7032004F01F026409012C0ED00B
:103AD4000A49803251F8223023F4403343EA004348
:103AE40041F8223038BD0220EDE70220EBE704491B
:103AF400EFE700BF00D000504800002000258450AC
:103B04000028845010B50446FFF7ACFBA0B1204652
:103B140002F08FFB80B12046FFF7C4FB01228240F4
:103B24000D4BC3F8082300F5A27053F8202022F0AF
:103B3400030243F820200CE004F01F036409012C65
:103B440008D00649803351F8232022F4403241F84A
:103B5400232010BD0249F5E700D000500025845011
:103B64000028845010B50446FFF772FB08B90D48CD
:103B740010BD2046FFF7C6FF2046FFF713FC04F0F4
:103B84001F026409012C0BD00749803251F82230FE
:103B940003F0E04343F0020341F822300348E7E72F
:103BA4000349F2E70400AD0B002584500000AD0B7F
:103BB4000028845038B501204FF4807300210C464E
:103BC40003E0400004339BB20131072914D803F108
:103BD400A04202F550421268002AF2D00C4AD2F8F0
:103BE40004231042EDD003F1A04202F55042002517
:103BF400156012680443E4E7054BD3F87C311BB924
:103C04002046FFF723FC38BDFFF7D0FCF8E700BFE0
:103C140000D00050034B00E01833034A9342FBD317
:103C2400704700BF3C6700009C67000070B5064603
:103C3400114B53F8204009E0404217E0EB6818703C
:103C4400EA68537843F0010353700834731C0A4A3A
:103C540052F82330A3420DD9656823682846984753
:103C6400002DF2D00028EBD00028E5DBFF28E5DDAD
:103C7400FF20E3E770BD00BF246C000010B586B0E0
:103C8400114CB02303FB004400EB800C00EB40001C
:103C94000E4B03EBC0000E4B0593012304930F233B
:103CA400039300230293019300900A4B4FF4A072F4
:103CB400094901EB8C11204600F048F9637B23F09D
:103CC4000403637306B010BDB0010020680900202E
:103CD4003C6C0000AD400000800F002008B50A4B8A
:103CE40001221A700220FFF7A1FF01F08DF80320D2
:103CF400FFF79CFF00F08EF9FCF796FB034A137B59
:103D040023F00103137308BD7D0B00206002002023
:103D140008B50146014A0248FDF798FCE13C000061
:103D24006002002008B50348034A121A002102F079
:103D3400B5FA08BD90010020800B002010B50446A0
:103D4400FFF79CFF0A49B02303FB0411094A04EB63
:103D5400440302EBC303D9601C75074B03EBC42374
:103D640003F5006304EB440402EBC404636010BD78
:103D7400B001002068090020C010002070B586B092
:103D840000F0DCFD104D114BDD61114B0593012357
:103D94000493002403940294019400940D4B4FF473
:103DA40080620D49284600F0D1F806466B7B23F06B
:103DB40004036B73284602F040FB2046FFF7BEFF66
:103DC400304606B070BD00BF6002002068090020C4
:103DD400446C0000E13C0000800B002000B5ADB055
:103DE4001D4B03F5006282F3088883F30A881B4C99
:103DF400E02384F822300025E57725766576A576DC
:103E040084F82050636A43F4E023636284F8235007
:103E1400FDF760FDFDF72EFB4FF0FF33A362E36275
:103E2400FDF7BAFFFDF720FE01248DF80D408DF853
:103E34000C40269527952995094BC3F808D0FFF720
:103E4400E9FE2846FFF7F2FE2046FFF7EFFEFFF7F4
:103E540095FFFFF75DFF00BFC010002000ED00E0FC
:103E64006809002010B5064C002000E01C34054B06
:103E74009C4204D2204602F019FA0028F6DA10BD5A
:103E84003C0100203C01002030B583B00D464FF0CA
:103E94002004EFF3118184F31288BFF36F8F446918
:103EA4006CB12C6043691B6843618369013383618E
:103EB400002081F31188BFF36F8F03B030BD00F190
:103EC400080C53EA020404D100232B606FF00B00AA
:103ED400EFE7009201930246604600F003FC0028DD
:103EE400EBD1024B9B685B692B60E6E76809002015
:103EF4004FF02003EFF3118183F31288BFF36F8F28
:103F04000A4B9B6A834204D11A6F084B9A6207E0FA
:103F1400134613B11A6F8242FAD10BB1026F1A67BA
:103F240081F31188BFF36F8F704700BF68090020C9
:103F340008B553EA020102D102F01BFA08BD024996
:103F4400183000F053FEF9E7776400002DE9F04FD4
:103F540085B004460F4615461E46DDF838A0DDF848
:103F64003C90DDF84080DDF84CB000F158038365E7
:103F7400C365129B0422119902F0FFF92A463946BF
:103F8400204602F0E4F90546CDF80880CDF8049007
:103F9400CDF800A03346024639462046FDF734FBEF
:103FA400002363652666C4F864A0C4F86890C4F866
:103FB4006C804FF02003EFF3118283F31288BFF378
:103FC4006F8F134B996A21679C6282F31188BFF348
:103FD4006F8FBBF1000F13D01F22594604F17400F8
:103FE40001F05FFB002384F89330094B9B685BB1BD
:103FF400D3F8A430C4F8A430284605B0BDE8F08F47
:10400400002384F87430F0E7C4F8A430F4E700BF68
:104014006809002030B587B0214C14E0E36A0593A9
:10402400236A0493E3690393A36902936369019385
:1040340023690093E368A26861682068FFF786FF3C
:1040440023685C653034174B9C42E7D300F0DEF9FB
:10405400134C00E03034134B9C421CD2606AB0F124
:10406400FF3FF7D0256820EAE070C117C90341EA91
:104074005041C00340F2E733C0184FF47A724FF056
:10408400000341F10001FCF763F802460B462846A1
:10409400FFF74EFFDEE700F0DBFB07B030BD00BFEB
:1040A4003C0100203C01002008B501E0FDF7E8F9DF
:1040B4004FF02002EFF3118382F31288BFF36F8F66
:1040C40002F0BFFA054B9861054B1B78002BEDD02D
:1040D400FCF7D8FF0028EBD1E8E700BF680900200F
:1040E4007D0B00202DE9F04383B004461D464FF0BC
:1040F4002003EFF3118783F31288BFF36F8FC16836
:1041040099B900294FD13A4B9B6893F90E3023613A
:104114000131E160364B9B68A36087F31188BFF3DC
:104124006F8F002003B0BDE8F08316468268304BE1
:104134009B689A42E5D055EA06010CBF4FF001088E
:104144004FF0000831D092F90E90494693F90E00D1
:1041540002F024F981452FDC4FF000090096019507
:1041640022463946234800F0BDFA0028DAD04FF041
:104174002003EFF3118583F31288BFF36F8F236855
:104184009C421FD0F3B1216993F90E0002F006F9A5
:104194000146204602F00DF9B0B9B9F1000F15D06F
:1041A4004FF0010812E02369B1E787F31188BFF3E8
:1041B4006F8F6FF00F00B5E70146204602F0F9F863
:1041C4008146CBE72169E4E74FF00108B8F1000F1D
:1041D40006D185F31188BFF36F8F6FF00A00A1E752
:1041E4002946044800F0F6F86FF00A009AE700BF89
:1041F40068090020940900208268002A35D038B567
:1042040004461D4B9B689A4232D1DA7B013ADA7339
:10421400C368012B05D9013BC36000F019FB0020E2
:1042240038BD4FF02003EFF3118583F31288BFF3F9
:104234006F8F016902F0BDF8204602F09EF9A0607C
:1042440060B190F90E3023610023C0F8AC3002F065
:10425400F4F82946094800F0BDF8DEE70023E360DE
:1042640085F31188BFF36F8FD7E76FF015007047A0
:104274004FF0FF30D4E700BF680900209409002004
:1042840038B504464FF02003EFF3118583F3128809
:10429400BFF36F8F02F071F948B10022C0F8AC206F
:1042A40002F0CBF82946074800F094F838BDA3681B
:1042B400E268934203D001221344A360F2E7002290
:1042C400FAE700BF9409002010B582B04FF0200433
:1042D400EFF3118184F31288BFF36F8F846844B1C4
:1042E400013C846081F31188BFF36F8F002002B01A
:1042F40010BD53EA020406D0009201930246054819
:1043040000F0F0F9F3E781F31188BFF36F8F6FF0DA
:104314000F00ECE794090020B3F1FF3F08BFB2F1AE
:10432400FF3F00D1704708B50249183000F05EFC29
:1043340008BD00BF7764000010B5074B1C6804B9C2
:1043440010BDFEF779FB0444044B1C610021024BB1
:10435400186802F08DF9F3E79C0900206809002031
:1043640070B504460D4600234FF02002EFF311868A
:1043740082F31288BFF36F8F0EE00228B8BF0220C9
:104384001860114B1D60114B9868FFF7D5FF86F339
:104394001188BFF36F8F0123A3B90C4B00221A615C
:1043A400610CE30340F2E73018184FF47A724FF0CF
:1043B400000341F10001FBF7CBFE054B1860002C14
:1043C400DBDCDEE770BD00BF98090020680900202F
:1043D4009C09002008B5084621B9EFF3058313B9F9
:1043E400012100E0002111F0010F07D0064BDA692A
:1043F4009B689A4202D0FDF7ADF803E080F3118880
:10440400BFF36F8F08BD00BF6809002000234FF081
:104414002002EFF3118182F31288BFF36F8F09E05A
:10442400064B9A68D37B013BD37381F31188BFF3A6
:104434006F8F0123002BF3D0704700BF6809002061
:1044440038B50446104801F0F1FF054670B184B94F
:104454000E4B9B685A7B12F01F0F0AD1AA6942B90E
:10446400DA897F2A05D9094AD3610BE0074BDD6855
:10447400EDE7064B9B68AB4202D02846FFF75CFF92
:10448400024BDD6138BD00BF8809002068090020A7
:1044940038B50546427B90F90D30002B28DB6B7B49
:1044A40063F07F036B731A4B53F8204F9C422DD05B
:1044B4006CB12146284601F092FF002820DC34B17B
:1044C400134B5B6A9C4202D02468002CF0D1104B41
:1044D4005A6A03F1200129606A6015605D620C4B21
:1044E4009868A84214BF00200120FFF7A9FF38BD37
:1044F40002F07F0242730146064801F08FFFCEE7C7
:1045040063686B602C601D606560E8E70024CFE79A
:10451400680900208809002038B50446074B9D68C7
:104524006B7B13F01F0F04D02846FFF705FF2046CE
:1045340038BD2846FFF7ACFFF6E700BF6809002046
:1045440038B54FF02003EFF3118483F31288BFF3DF
:104554006F8F224B9B68224A1268934218D02146DF
:104564001F4A002515601F4A126872B3DA897F2A30
:1045740016D85A7B12F01F0F1CD193F90E501A4A09
:104584001268954218DB194A934217D0012308E0B8
:104594001846FFF7D1FE84F31188BFF36F8F1BE039
:1045A400002393B10D4B1B69834209DD181A0B4B91
:1045B40018610DE00023F4E70023F2E70023F0E79D
:1045C4002046FFF7A9FF014602E0044B00221A61CE
:1045D40081F31188BFF36F8F38BD00BF68090020D5
:1045E400940900209C09002098090020B0010020B3
:1045F40038B5437B90F90D20002A2DDB044613F0D7
:104604001F0F05D182690AB1002202E0012200E0F5
:1046140000220AB363F07F036373144B53F8205FE3
:104624009D4220D06DB12946204601F0D8FE0028D5
:1046340013DC35B10D4B5B6A9D4202D02D68002D11
:10464400F0D10A4B5A6A03F12001216062601460C0
:104654005C620020FFF7F4FE38BD6B686360256080
:104664001C606C60F5E70025DCE700BF68090020EA
:1046740010B54FF02003EFF3118483F31288BFF3D6
:104684006F8F437B13F0040F04D184F31188BFF3BD
:104694006F8F10BD23F004034373FFF7A9FF214676
:1046A4000148FFF797FEF4E79809002010B5044687
:1046B400427B90F90D30002B08DB084B9868A04230
:1046C40014BF00200120FFF7BBFE10BD02F07F02E3
:1046D40042730146024801F0A1FEEEE7680900209A
:1046E4008809002010B50C461146064B9868064B05
:1046F4001860DDE9022301F01EFF2046FCF72AFFC3
:1047040010BD00BF68090020940900202DE9F8437A
:1047140004460E4600234FF02002EFF3118882F383
:104724001288BFF36F8F1F4608E012F0010711D102
:10473400A67388F31188BFF36F8F01231A46002BE9
:104744003DD1637B13F01F0FEFD1A1690029ECD198
:104754000122EAE703F07F036373DFF868902146E0
:10476400484601F05BFEA673637B63F07F036373CB
:10477400D9F800504D4520D06DB12946204601F0AE
:104784002EFE002813DC35B10F4B5B6A9D4202D02C
:104794002D68002DF0D10C4B5A6A03F120012160E1
:1047A400626014605C620120FFF74AFEC1E76B6837
:1047B400636025601C606C60F5E70025DCE7384623
:1047C400BDE8F883880900206809002038B504464C
:1047D400183001F018FF00234FF02002EFF3118589
:1047E40082F31288BFF36F8F10E0637B43F01003F2
:1047F4006373154B9868A04214BF00200120FFF793
:104804001FFE85F31188BFF36F8F012363B9627BA9
:1048140094F90D30002BE8DA02F07F02627321462E
:104824000A4801F0FBFDE0E7074B9B68A34200D078
:1048340038BD4FF02003EFF3118083F31288BFF3E8
:104844006F8F01F0D6FDF3E7680900208809002086
:1048540010B500234FF02002EFF3118482F3128885
:10486400BFF36F8F0CE00D4B9A68D37B0133D37386
:104874000020FFF7E5FD84F31188BFF36F8F012358
:10488400002BF0D04FF02003EFF3118083F3128854
:10489400BFF36F8F01F0ADFD10BD00BF68090020AC
:1048A400F8B5437B13F0080F45D1054643F00803E0
:1048B400437303F0DF03437313F0800F2DD1AB6810
:1048C4005BB1284601F089FD294601F0A7FD6B7B09
:1048D40023F002036B730023AB6005F1180001F0B1
:1048E40092FE05F158073C68BC421ED0ECB120464C
:1048F40001F073FD214601F091FD637B23F0020377
:1049040063730026A66004F1180001F07CFEC4F86D
:10491400AC602046FFF76CFEE5E703F07F034373CA
:104924000146054801F07AFDC9E70120FFF788FD3B
:104934002846FFF7DDFAF8BD8809002008B50448C9
:1049440001F046FE00210846FFF70AFD08BD00BF3E
:1049540084090020F8B54FF02003EFF3118683F3A8
:104964001288BFF36F8F1C4CA1684B7B03F07F034D
:104974004B7304F12007384601F050FDA5686B7BAA
:1049840063F07F036B73246ABC4223D06CB121466D
:10499400284601F024FD002816DC34B10E4B5B6A76
:1049A4009C4202D02468002CF0D10B4B5A6A03F1CC
:1049B400200129606A6015605D620120FFF740FDF7
:1049C4003046FCF7C7FDF8BD63686B602C601D6062
:1049D4006560F2E70024D9E7680900202DE9F04179
:1049E40050EA010338D004460E466FF001031B1A47
:1049F4004FF0FF3262EB0102012B72F100032FDB57
:104A04006FF001052D1A4FF02003EFF3118883F3A3
:104A14001288BFF36F8F144FB868144B1860FFF7F8
:104A240045FEB868224633461149183000F0DEF8D6
:104A3400BA68537B43F0100353734046FCF78AFD76
:104A440001F041FE281A63EB0303012873F100030C
:104A540000DA0020BDE8F081FFF77CFF0020F9E7D1
:104A640001F031FE0519CEE7680900209409002001
:104A74007764000008B5B1F1FF3F08BFB0F1FF3F14
:104A84001AD0FFF7ABFF8446C217510141EAD06147
:104A940043011B1A61EB0201880040EA93709B00FA
:104AA40013EB0C0342EB0000C00040EA5370C3F365
:104AB400103343EA404008BD034B9868FFF786FE75
:104AC4004FF0FF30F7E700BF68090020014B9868FA
:104AD400704700BF6809002038B54FF02003EFF39A
:104AE400118583F31288BFF36F8F437B13F0080F94
:104AF40004D085F31188BFF36F8F38BD0446FFF7E8
:104B0400CFFE084B9B68A34204D085F31188BFF302
:104B14006F8FF2E7EFF30583002BF6D12846FCF7FD
:104B240019FDF2E76809002008B50648064A121A7A
:104B3400064901F0B7FB064A0649074801F0B2FBF3
:104B440008BD00BF000000208C010020106D000093
:104B540000000000106D000000000020034B1868E6
:104B6400984200D070470020FCE700BFC40000203A
:104B740030B1044A5268904201D000687047002066
:104B8400704700BFC400002008B5044B1B680BB17C
:104B9400002008BDFDF750FFFBE700BFA00900207F
:104BA40010B5FFF7DBFF0446FFF7EEFF7CB1236986
:104BB40062691B1A62EBE070B3F1004F70F10002FE
:104BC40008DA002801DB184606E00023FBE76FF053
:104BD400004001E06FF00040034B1B6913B18342B6
:104BE40000DA184610BD00BF68090020B3F1FF3F8A
:104BF40008BFB2F1FF3F7DD02DE9F047044692464D
:104C04001D46816000234FF02002EFF3118782F3E9
:104C14001288BFF36F8F21E01AF1010845F10009F2
:104C2400FFF7B2FF18EB000349EBE070236160610A
:104C340036E0511A66EB0303016143614368636024
:104C440020601C60446000283ED0FFF787FF844248
:104C540041D087F31188BFF36F8F0123002B47D115
:104C640053466FF00101B1EB0A014FF0FF3060EBE6
:104C74000502002AD0DB204A116852685B1842EB17
:104C840005026FF00101CB1A60EB020218461146CF
:104C9400012B72F1000301DA01200021206161611E
:104CA400FFF75CFF0028CED0026946692169636979
:104CB400914273EB060CBCDB891A63EB060321619A
:104CC4006361FFF755FFEDE70C4B5A6823606260A0
:104CD40014605C60B9E7FFF763FF034618B1084A44
:104CE40012698242B5D000211846FDF773FEB0E781
:104CF400BDE8F087704700BF10030020C400002007
:104D04006809002070B50446FFF71AFC4FF0200331
:104D1400EFF3118583F31288BFF36F8F284B1C6068
:104D240020E0284801684668891846EBE27601606D
:104D340046609B1A224A136000220023C4E904231C
:104D4400204601F049FC85F31188BFF36F8FA368F7
:104D5400204698474FF02003EFF3118583F3128820
:104D6400BFF36F8FFFF7FAFE044640B10269416951
:104D7400134B1B68D817934270EB0101D1DA44B18D
:104D84000F4B1968236962695B1A62EBE172236154
:104D940062610C4A0A4E3068136851681B1841EB73
:104DA400E0711360516000243460FFF7F9FE21467E
:104DB400FDF710FE85F31188BFF36F8F70BD00BF40
:104DC400A00900201003002010B500234FF020029A
:104DD400EFF3118482F31288BFF36F8F18461946DC
:104DE4000CE0FDF729FE074A13685168C01841F129
:104DF400000184F31188BFF36F8F0123002BF0D0DF
:104E040010BD00BF1003002008B5034A034904483D
:104E140000F0A8F908BD00BF686A00004C6C0000EF
:104E24005C6C000010B50A4C23681BB10123002000
:104E3400236010BD00F0DCF80028F7D00138072803
:104E440003D8044B53F8200010BD034810BD00BF25
:104E5400A4090020846C0000FE8FFFFFBFF34F8F76
:104E64000549064BCA6802F4E0621343CB60BFF302
:104E74004F8F00BFFDE700BF00ED00E00400FA051E
:104E840030B44FF0FE3200250B4B0C4C0C494968F2
:104E9400C3F80024C3F80424C3F80824C3F80C247A
:104EA400C3F81024C3F81424C3F81824C3F81C242A
:104EB400C4F8005530BC084700508450004084506A
:104EC400CC000020024BD0E90012C3E90012704765
:104ED400CC00002010B5044630B16368DB0602D56F
:104EE40000232360636010BD024B03485B6898474E
:104EF400F3E700BFCC000020A46C0000B0B143680D
:104F040093B1DB060ED5012350E8002F194640E883
:104F1400001C9CF0000FF7D1012AF5D0BFF35F8F7E
:104F24000020704703487047034870476FF4E0401F
:104F3400704700BFE98FFFFFEA8FFFFF034668B1A8
:104F440042683AB1D20607D5BFF35F8F00221046FC
:104F54001A60704703487047034870476FF4E04095
:104F6400704700BFEA8FFFFFE98FFFFF10B50446CB
:104F740020B1002211232260636010BD0148FFF7B5
:104F84007FFFF6E7CC6C000070B5164CD0F804C077
:104F94000668C4F804C0D0F808C0C068C4F808C0E3
:104FA400E06026600868104B104D18604868D5F81A
:104FB4001821586088689860C8680969D8601961C0
:104FC400D3060DD5002305F58A70C5E94533C5E937
:104FD4006E33B047236805F5DC70BDE870401847B0
:104FE40070BD00BFDC000020EC000020BC090020E4
:104FF40008B500F011F830B900F010F838B9054AD6
:10500400C2F80C0A08BD00F037F8032008BD0420DC
:1050140008BD00BF005084500020704710B51148EF
:1050240000F048F800B110BD0F4800F043F8002824
:10503400F9D10E4C204600F03DF80028F3D10C4B7A
:105044000C481C6000F036F801460028EBD100F053
:105054002DF8044608B1204610BD00F03FF8204664
:10506400FAE700BF240100201801002020010020DD
:10507400280100201C01002008B5084800F024F88D
:10508400074800F021F8074800F01EF8064800F031
:105094001BF8BDE8084000F00BB800BF2401002055
:1050A40018010020200100201C010020002070476E
:1050B400704700BF08B5034B02681B681068984727
:1050C400002008BDDC00002008B5034B02685B68C3
:1050D40010689847002008BDDC00002070B5094C1A
:1050E400094D2069AB68984718B1084B08485B68BC
:1050F40098470021074AEB6811602069BDE87040B9
:10510400184700BFEC000020DC000020CC00002089
:10511400F06C0000B8090020024658B1436803F05F
:105124000303012B03D0032B07D1036843B10020F1
:10513400906070476FF0150070476FF0150070476E
:105144006FF0150070470346426802F00302816065
:10515400032A03D1006800225A6070470020FAE74E
:10516400002070470FB400B583B004A951F8040BB4
:105174000191FBF78FF903B05DF804EB04B07047BD
:1051840001F00703018B21F00701194301837047E4
:105194002DE9F04106460F469046816819B10C4648
:1051A40031B10C6804E00C4602E0234621461C465B
:1051B40059B14D6843463A463046A847002CF4D0CE
:1051C4002346002CF2D02368F0E7BDE8F081038B7E
:1051D40013F0070303D102680AB103207047022BBE
:1051E40003D0012B06D000207047428B002AF8D14F
:1051F4000420704703680BB10520704700207047F6
:1052040010B504468C46038B002A07DB03F0070322
:105214005A1F012A0ED9042B33D010BDD0E9000146
:105224008CE8030000232360636001212046FFF71C
:10523400A7FFF2E7D0E900018CE803000022226016
:105244006260062B18D1DCF800303BB1628B01326E
:105254006283002BF9D01B68002BF6D10221204673
:10526400FFF78EFF2046FFF7B2FF0028D5D0238B2F
:1052740043F020032383D0E700212046FFF780FF7B
:10528400F0E70021FFF77CFF2046FFF7A0FF00288E
:10529400C3D0238B43F020032383BEE758B110B55A
:1052A4000C4659B1081DFFF737FF18B9A36833F04E
:1052B400030306D110BD6FF0150070476FF01500A1
:1052C400F8E76FF01500F5E72DE9F04107460C46C5
:1052D40016461D461946201DFFF735FF28B18046A6
:1052E4002B46324621463846C047BDE8F0812DE9B9
:1052F400F04180460C4617461E4604E033463A46C3
:105304004046FFF7E1FF216831B10D68256063680D
:105314008B42F3D16560F1E7BDE8F08108B54FF049
:10532400200CEFF311828CF31288BFF36F8F41616D
:105334000121FBF7BFF808BD034670B181B10A68CB
:105344008AB14A6892B10020186058609860D860A9
:10535400186158619861196170476FF015007047C2
:105364006FF0150070476FF0150070476FF015006F
:105374007047F8B504460F46FFF790FF061E37DB6B
:105384004FF02003EFF3118283F31288BFF36F8F82
:10539400258B05F00705638B4FF6FF718B422FD0E9
:1053A4002E46022D0CD08DB1042D0FD0062D0DD01C
:1053B400052D1FD06FF0040600210B4608460AE0B5
:1053C4000133638301210023184604E0B5FA85F311
:1053D4005B090021012028B1002038606068A8B171
:1053E40007606760ABB982F31188BFF36F8FA9B907
:1053F4003046F8BD6FF0850600210B460846EAE703
:105404006FF00A0600210B460846E4E76760276050
:10541400E8E702212046FBF74DF8E9E700232A4696
:1054240039462046FFF750FFE2E708B50446084630
:1054340011461A46A047FFF749FBFCF7FBFA8446DE
:105444000268002005E000EB8000013203EB40001D
:1054540030381378A3F130010929F4D9CCF80020AD
:1054640070472DE9F04F83B004460D4601929A46E9
:105474000C9ED378A3F1410B6F2B0FD006D9702B60
:105484000FD0782B10D14FF0100926E0582B02D002
:105494004FF00A0921E04FF010091EE04FF008090F
:1054A4001BE04FF0100918E04FF00A0915E0BBF1BA
:1054B400190F21D8D2B23732D2B206F8012D3A46AA
:1054C400434620462946FAF743FEBC4275F10003E1
:1054D40016D3564514D904460D464FF000084F46DE
:1054E4004A46434620462946FAF732FE092ADED8C0
:1054F400D2B23032D2B2E0E7D2B25732D2B2DCE723
:10550400019B1B7813F0200F05D0B9F1080F06D0CA
:10551400B9F1100F09D0304603B0BDE8F08F019AFD
:10552400937843F008039370F5E7019A937843F076
:1055340010039370EFE72DE9F04107460E46144639
:105544009846002506E0314614F8010BB8470028B8
:1055540009DB01354445F6D3B8F1000F02D12378B5
:10556400002BF0D12846BDE8F0817047002383F377
:105574001188BFF36F8F704708B50020FBF7B8FCA4
:1055840008B500F071FE08BD08B501460068FFF7D4
:10559400F7FF08BD08B500210120FFF7F1FF08BDA2
:1055A40008B5FBF7B7FFFCF787F808BDD0F89830CB
:1055B40083F30B8870470020704700230B707047FB
:1055C40008B500231370CB1E092B1AD8DFE803F0AB
:1055D40005090D111919191919141146FCF7F2F8D6
:1055E40010E00021FCF776F80CE00021FCF7A8F8A5
:1055F40008E0FCF7CFF805E01146FFF7DEFF0020D6
:1056040000E0002008BD40E800F010F4803F01D025
:10561400C0B270476FF01500704743681F2B0AD95A
:1056240013F01F0F01D000207047036813F01F0F01
:1056340003D00020704700207047012070470728DE
:1056440005D810B50446FCF739FA204610BD6FF0B2
:105654001500704710B584B00B6800934C68B1F81E
:1056640008C09DF808206CF304028DF808204989CD
:10567400D2B261F347128DF8082023F01F032344AC
:10568400013B23F01F0303936946FFF7D8FF04B0DF
:1056940010BD08B5FCF702FB08BD08B5FCF708FB14
:1056A40008BD0346A2B110B40C782CB103F8014B29
:1056B4000131013A002AF7D122B1002103F8011B7C
:1056C400013AF9E710BC7047002103F8011B013AC5
:1056D400002AF9D170470346002001E0013301306C
:1056E4001A78002AFAD170470346002001E00133FA
:1056F40001301A780AB18842F9D3704780EA01036D
:1057040013F0030F01D0034623E0034613F0030F05
:105714000FD00AB311F801CB03F801CB013AF5E736
:1057240011F801CB03F801CB013A002AF8D110BCDF
:105734007047032A0DD910B451F8044B43F8044BB5
:10574400043A032AF8D8F0E711F801CB03F801CBA7
:10575400013A002AF8D1704770475FFA81FC03468A
:1057640002E003F801CB013A13F0030F02D0002A40
:10577400F7D10FE0C9B241EA012141EA0141032A0C
:1057840006D943F8041B043AF9E703F801CB013ABC
:10579400002AFAD170474FF0FF307047006901EBDF
:1057A40041018900703108447047406800EBC10032
:1057B40070470069C1EBC10100EB8100704708B577
:1057C400C9B2FFF7EBFF806800F0070008BD4FF097
:1057D4002003EFF3118283F31288BFF36F8F036802
:1057E40013F0C00301D08B4207D1012303600020D2
:1057F40082F31188BFF36F8F70474FF0FF30F7E7E4
:105804004FF02003EFF3118283F31288BFF36F8FFD
:10581400036803F0C00C03F00703012B08D08C4588
:1058240009D04FF0FF3082F31188BFF36F8F7047B8
:1058340001600020F7E76FF07700F4E74FF02003F2
:10584400EFF3118283F31288BFF36F8F036803F0C1
:10585400C00343F00203036082F31188BFF36F8F28
:105864007047F8B506460C46FFF798FF0568476889
:10587400002340F8083BFFF7E1FF1DB13A462146FB
:105884003046A847F8BD70B506461546CCB2214649
:10589400FFF784FF29460830FFF799FF002806DB4D
:1058A40021463046FFF781FF43689847002070BDCA
:1058B40008B58022FFF7E7FF08BD2DE9F041064651
:1058C40090461F46CDB22946FFF768FF0446069965
:1058D4000830FFF795FF002809DBC4F800806760F3
:1058E40029463046FFF761FF036898470020BDE86A
:1058F400F08110B582B080240094FFF7DEFF02B07F
:1059040010BD10B51446C9B2FFF753FF0021A047DC
:1059140010BD08B5012000F004FC08BD08B5032043
:1059240000F0FFFB08BD08B5022000F0FAFB08BD3B
:1059340008B5002000F0F5FB08BD08B5012000F013
:1059440065FC08BD08B5032000F060FC08BD08B57F
:10595400022000F05BFC08BD08B5002000F056FCF6
:1059640008BD08B51046FEF78BFC08BD20F4FC709A
:1059740020F001004005400D40F20623984233D048
:1059840016D806282CD006D9B0F5007F0DD10123F6
:105994000B700020704700B3022803D104230B705E
:1059A400002070476FF0150070476FF015007047C6
:1059B40040F2024398421BD0B0F5C06F03D10323D9
:1059C4000B7000207047B0F5806F03D102230B7079
:1059D400002070476FF01500704700200870704772
:1059E40006230B700020704707230B7000207047BC
:1059F40005230B700020704710F0100F04D110F035
:105A0400200F03D100207047032070470120704706
:105A140043685B681B690B600020704743685B68E0
:105A2400586842400A4042405A6000207047436828
:105A34005B6899600020704743685B68D960002008
:105A4400704743685A6853684B405360002070475E
:105A5400B0F5800F07D0B1F1C06F0DD0B1F1007F68
:105A640008D001207047B1F1007F01D005207047B4
:105A740004207047022070470320704710B4046963
:105A840004F1040C6368FBB100200DE00B68636053
:105A9400DCF80400814212D1CCF804300FE0CCF8D9
:105AA40004000CE018461B6863B19942FAD100283F
:105AB400ECD00B680360DCF804309942EFD000238B
:105AC4000B60012303B962B172B163680B6061605A
:105AD400DCF804300BB1002007E0CCF804100020FF
